:100000000C945D000C9485000C9485000C94850084
:100010000C9485000C9485000C9485000C9485004C
:100020000C9485000C94D5060C9485000C948500E6
:100030000C9485000C94B0060C9485000C948500FB
:100040000C9466060C9485000C9434060C940E06F1
:100050000C9485000C9485000C9485000C9485000C
:100060000C9485000C9485000000000024002700FB
:100070002A0000000000250028002B0004040404CE
:100080000404040402020202020203030303030342
:10009000010204081020408001020408102001021F
:1000A00004081020000000080002010000030407FB
:1000B00000000000000000007E0711241FBECFEFEB
:1000C000D8E0DEBFCDBF24E0A2E5B1E001C01D92C3
:1000D000AD38B207E1F711E0A0E0B1E0E2E1FCE207
:1000E00002C005900D92A235B107D9F710E0CDE519
:1000F000D0E004C02197FE010E94C415CC35D10781
:10010000C9F70E94D9070C9407160C940000CF92EF
:10011000DF92EF92FF92CF93DF93CDB7DEB7C0545B
:10012000D1090FB6F894DEBF0FBECDBF80E4E0E08A
:10013000F1E0DE01119601900D928A95E1F7EEE271
:10014000F3E02DE633E0CC24CA94DC2C76018191D7
:10015000B701A60148274F70552766277727440F18
:10016000551F440F551F61E070E06C0F7D1F460F57
:10017000571FDA014D915D916D917C91A4E0F69449
:10018000E794D794C794AA95D1F74C255D256E25A1
:100190007F2590E0B4E095958795BA95E1F7092E13
:1001A000000CAA0BBB0B84279527A627B7278F70B7
:1001B0009927AA27BB27880F991F880F991FA1E0AD
:1001C000B0E0AC0FBD1F8A0F9B1FDC01CD90DD900E
:1001D000ED90FC90B4E07695679557954795BA9564
:1001E000D1F7C426D526E626F726C094D094E0940D
:1001F000F0942E173F0709F0AACFC701B601C05CE3
:10020000DF4F0FB6F894DEBF0FBECDBFDF91CF91A9
:10021000FF90EF90DF90CF900895AF92BF92CF9272
:10022000DF92EF92FF920F931F93CF93DF936C01B6
:100230007B018B01040F151FEB015E01AE18BF0897
:10024000C017D10759F06991D601ED91FC91019049
:10025000F081E02DC6010995892B79F7C501DF9161
:10026000CF911F910F91FF90EF90DF90CF90BF90B3
:10027000AF90089540916F0350E06DE673E08DEE0E
:1002800093E00C940D01FC01538D448D252F30E03B
:10029000842F90E0821B930B541710F0CF96089593
:1002A00001970895FC01918D828D981761F0A28DC0
:1002B000AE0FBF2FB11D5D968C91928D9F5F9F7386
:1002C000928F90E008958FEF9FEF0895FC01918D3C
:1002D000828D981731F0828DE80FF11D858D90E0A9
:1002E00008958FEF9FEF0895FC01918D228D892F46
:1002F00090E0805C9F4F821B91098F73992708952E
:100300008DEE93E00E94740121E0892B09F420E036
:10031000822F089580E090E0892B29F00E948001CF
:1003200081110C9400000895FC01A48DA80FB92F31
:10033000B11DA35ABF4F2C91848D90E001968F730D
:100340009927848FA689B7892C93A089B1898C912C
:10035000837080648C93938D848D981306C002887B
:10036000F389E02D80818F7D80830895EF92FF9245
:100370000F931F93CF93DF93EC0181E0888F9B8DC8
:100380008C8D98131AC0E889F989808185FF15C082
:100390009FB7F894EE89FF896083E889F9898081A5
:1003A0008370806480839FBF81E090E0DF91CF9174
:1003B0001F910F91FF90EF900895F62E0B8D10E096
:1003C0000F5F1F4F0F731127E02E8C8D8E110CC005
:1003D0000FB607FCFACFE889F989808185FFF5CF50
:1003E000CE010E949401F1CFEB8DEC0FFD2FF11D9A
:1003F000E35AFF4FF0829FB7F8940B8FEA89FB898D
:1004000080818062CFCFCF93DF93EC01888D8823EA
:10041000B9F0AA89BB89E889F9898C9185FD03C067
:10042000808186FD0DC00FB607FCF7CF8C9185FF4C
:10043000F2CF808185FFEDCFCE010E949401E9CFFC
:10044000DF91CF91089590E0FC01EC55FF4F24918E
:10045000FC01E057FF4F3491FC01E458FF4FE49159
:10046000EE23C9F0222339F0233001F1A8F4213022
:1004700019F1223029F1F0E0EE0FFF1FEE58FF4F87
:10048000A591B4918FB7F894EC91611126C0309585
:100490003E233C938FBF08952730A9F02830C9F040
:1004A000243049F7809180008F7D03C080918000C7
:1004B0008F7780938000DFCF84B58F7784BDDBCFCB
:1004C00084B58F7DFBCF8091B0008F778093B00093
:1004D000D2CF8091B0008F7DF9CF3E2BDACFCF9372
:1004E000DF9390E0FC01E057FF4F249184589F4F29
:1004F000FC0184918823D1F090E0880F991FFC01C2
:10050000E859FF4FA591B491FC01EE58FF4FC591FA
:10051000D49161110EC09FB7F8948C91E22FE095B1
:100520008E238C932881E223E8839FBFDF91CF91B4
:1005300008958FB7F894EC91E22BEC938FBFF6CF30
:100540008E50806480937C0080917A0080648093D8
:100550007A0080917A0086FDFCCF8091780090919E
:10056000790008953FB7F8948091750190917601D4
:10057000A0917701B091780126B5A89B05C02F3FC7
:1005800019F00196A11DB11D3FBFBA2FA92F982FB9
:100590008827BC01CD01620F711D811D911D42E0B4
:1005A000660F771F881F991F4A95D1F708958F927C
:1005B0009F92AF92BF92CF92DF92EF92FF920E94F2
:1005C000B2024B015C0184E6C82ED12CE12CF12C47
:1005D0000E94B202681979098A099B09683E734032
:1005E00081059105A8F321E0C21AD108E108F108BC
:1005F00088EE880E83E0981EA11CB11CC114D104A2
:10060000E104F10429F7FF90EF90DF90CF90BF90C5
:10061000AF909F908F9008952FB7F89460917101DB
:100620007091720180917301909174012FBF0895B0
:10063000DC01EC918FEF8E0F8830F8F4CB016B3C2E
:10064000784014F08AEC98E08E3E22E0920714F491
:100650008EEE92E00897AC01440F452F441F550BD6
:100660002E2F30E0F901EE0FFF1FE20FF31FEB5AC0
:10067000FE4F4183880F8095828308951F93CF9307
:10068000DF93EC01162F80915401811122C0E5E522
:10069000F1E08DE691E03BE027E534832583339656
:1006A0008E179F07D1F78EE3809356011092530166
:1006B00010925201109270001092B00082E080936C
:1006C000B1001092B20081E087BB809370008093EC
:1006D000540188818823A1F061E0812F0E946F027C
:1006E000E8818E2F90E0FC01EE0FFF1FE80FF91F4D
:1006F000EB5AFE4F1F716081607E612B60626083E8
:100700008881DF91CF911F9108952F923F924F9250
:100710005F926F927F928F929F92AF92BF92CF9291
:10072000DF92EF92FF920F931F93CF93DF93CDB79A
:10073000DEB762970FB6F894DEBF0FBECDBF209133
:10074000C7023091C8024091C9025091CA02298360
:100750003A834B835C838091CB029091CC02A09131
:10076000CD02B091CE028D839E83AF83B887409037
:10077000CF025090D0026090D1027090D20220E05F
:1007800030E04AE754E4C301B2010E94BE1320E006
:1007900030E040EE50E40E94FF140E94711569871A
:1007A0007A878B879C8788E080937702C090BF020E
:1007B000D090C002E090C102F090C20225E239E47C
:1007C00042E15EE3C701B6010E94BE136D877E87DA
:1007D0008F87988BA7E3B2E0BA8BA98B812C912CE1
:1007E0005401E989FA8981929192A192B192FA8B8E
:1007F000E98B29853A854B855C85248F358F468F1B
:10080000578F2D853E854F855889C501B4010E94BB
:1008100093144B015C01AC019B01C701B6010E941E
:10082000581387FF02C046015701E989FA89E35549
:10083000F240B9F6C0925302D0925402E0925502AF
:10084000F0925602A301920169817A818B819C8189
:100850000E94921420E030E04AE754E40E94BE1364
:100860000E947115609373027093740280937502F5
:10087000909376028090D3029090D402A090D502FB
:10088000B090D60220E030E04AE754E4C501B4015C
:100890000E94BE1320E030E040EE50E40E94FF14BE
:1008A0000E9471159B0150E040E029833A834B83FD
:1008B0005C8388E08093B8021091C3023091C40237
:1008C0003D874091C50249870091C602212F502FD4
:1008D000C701B6010E94921425E239E442E15EE3C9
:1008E0000E94BE132B013C0188E7282E82E0382E9F
:1008F000D101CD92DD92ED92FD921D0129813A81C7
:100900004B815C815C962D933D934D935C935F97F7
:10091000A3019201C701B6010E9492146B017C01F0
:10092000AC019B01612F7D858985902F0E94A015C8
:10093000181624F4C12EDD84E984F02EB4E92B16B8
:10094000B2E03B06A9F6812F9D85A985B02F809343
:10095000940290939502A0939602B0939702A501FA
:1009600094016D817E818F8198850E94921420E090
:1009700030E04AE754E40E94BE130E947115609370
:10098000B4027093B5028093B6029093B70281E0EF
:1009900062960FB6F894DEBF0FBECDBFDF91CF9148
:1009A0001F910F91FF90EF90DF90CF90BF90AF908D
:1009B0009F908F907F906F905F904F903F902F907F
:1009C0000895EEE2F3E082E0808380E090E0A0E32F
:1009D000B1E487839087A187B28712821182148243
:1009E00013828CEE91EFAEE7B4E483879487A587FA
:1009F000B6878CEE91EFAEE7B4EC8787908BA18B36
:100A0000B28B80E090E0A4EBB2E4838B948BA58B57
:100A1000B68B8DEC9CECACECBDE3878B908FA18FFB
:100A2000B28F80E090E0A8E0B1E4838F948FA58F2F
:100A3000B68F8AE097EDA3E2BCE3878F90A3A1A3D2
:100A4000B2A313A214A215A216A280E090E0AFE216
:100A5000B4E487A390A7A1A7B2A780E090E0AAE79B
:100A6000B4E483A794A7A5A7B6A780E090E0A0EC84
:100A7000BFE387A790ABA1ABB2AB80E090E0A0EA68
:100A8000B1E483AB94ABA5ABB6AB8CED95E090AF86
:100A900087AB8EEE92E092AF81AF13AE14AE15AE7F
:100AA00016AE81E00895482FFC0190E080E02E2FE3
:100AB000241B261788F42191922728E030E0DC01DE
:100AC000880F991FB7FF04C051E2852750E1952791
:100AD00021503109A1F7EBCF0895CF93DF93FC01AB
:100AE000CDE6D3E09AE0DE0101900D929A95E1F710
:100AF0008985806889878AE08A831C821B826AE0F4
:100B0000CE010E9453059C838B83DF91CF910C947F
:100B10003A01CF93DF93FC01CDE6D3E09AE0DE010A
:100B200001900D929A95E1F78985806489878AE022
:100B30008A831C821B826AE0CE010E9453059C833B
:100B40008B83DF91CF910C943A010F931F93CF9336
:100B5000DF9382E080932E031092690310926A0360
:100B600010926B0310926C030E94870060936903DC
:100B700070936A0380936B0390936C030EE213E00F
:100B8000D0E0C0E0F80161918F01CE010E94841491
:100B90002196CF33D105B1F781E0DF91CF911F913D
:100BA0000F910895CF92DF92EF92FF920F931F93D0
:100BB000CF93DF930EE213E0D0E0C0E0CE010E94BD
:100BC0007C14F80181938F012196CF33D105B1F7C1
:100BD000C0906903D0906A03E0906B03F0906C03BF
:100BE0001092690310926A0310926B0310926C03C7
:100BF0000E948700C616D706E806F90629F481E0A8
:100C000090912E03923009F080E0DF91CF911F91F7
:100C10000F91FF90EF90DF90CF9008951F920F9269
:100C20000FB60F9211242F933F934F935F936F93BF
:100C30007F938F939F93AF93BF93EF93FF938DEE2B
:100C400093E00E949401FF91EF91BF91AF919F912A
:100C50008F917F916F915F914F913F912F910F9065
:100C60000FBE0F901F9018951F920F920FB60F9204
:100C700011242F938F939F93EF93FF93E091FD03A4
:100C8000F091FE038081E0910304F091040482FD61
:100C90001BC09081809106048F5F8F7320910704A1
:100CA000821741F0E0910604F0E0E351FC4F958F8C
:100CB00080930604FF91EF919F918F912F910F9058
:100CC0000FBE0F901F9018958081F4CF1F920F9246
:100CD0000FB60F9211242F933F938F939F93AF934F
:100CE000BF938091710190917201A0917301B091B5
:100CF00074013091700123E0230F2D3758F50196D0
:100D0000A11DB11D20937001809371019093720118
:100D1000A0937301B0937401809175019091760155
:100D2000A0917701B09178010196A11DB11D80932A
:100D3000750190937601A0937701B0937801BF91EC
:100D4000AF919F918F913F912F910F900FBE0F9078
:100D50001F90189526E8230F0296A11DB11DD2CF32
:100D60001F920F920FB60F9211242F933F934F9320
:100D70005F936F937F938F939F93AF93BF93EF9303
:100D8000FF93F0E0E0E00995FF91EF91BF91AF9103
:100D90009F918F917F916F915F914F913F912F9193
:100DA0000F900FBE0F901F9018951F920F920FB6C5
:100DB0000F9211242F933F934F935F936F937F93E1
:100DC0008F939F93AF93BF93EF93FF9380915201C3
:100DD0008F5F80935201E0915301209152018E2F39
:100DE00090E0FC01EE0FFF1FE80FF91FEB5AFE4FDA
:100DF0008181E091530182131DC08E2F90E0FC0190
:100E0000EE0FFF1FE80FF91FEB5AFE4F8281809310
:100E1000B200FF91EF91BF91AF919F918F917F9120
:100E20006F915F914F913F912F910F900FBE0F9057
:100E30001F901895209152018E2F90E0FC01EE0F2B
:100E4000FF1FE80FF91FEB5AFE4F8181821708F749
:100E5000E09153018E2F90E0FC01EE0FFF1FE80F91
:100E6000F91FEB5AFE4F808185FF10C0E0915301BE
:100E70008E2F90E0FC01EE0FFF1FE80FF91FEB5AD9
:100E8000FE4F808160E08F710E94230280915301A8
:100E90008F5F80935301109252011092B2008091A3
:100EA0005301882319F1809153018930F8F4E091BE
:100EB00053018E2F90E0FC01EE0FFF1FE80FF91F8A
:100EC000EB5AFE4F808185FFA4CFE09153018E2F16
:100ED00090E0FC01EE0FFF1FE80FF91FEB5AFE4FE9
:100EE000808161E08F710E94230293CF8091530132
:100EF000893008F48ECF109253018BCF1092F003FB
:100F00001092EF0388EE93E0A0E0B0E08093F1034D
:100F10009093F203A093F303B093F40384E491E07D
:100F20009093EE038093ED0385EC90E09093FA03A9
:100F30008093F90384EC90E09093FC038093FB038F
:100F400080EC90E09093FE038093FD0381EC90E0B1
:100F5000909300048093FF0382EC90E0909302044E
:100F60008093010486EC90E0909304048093030442
:100F700010920604109207041092080410920904BB
:100F800080918A04883078F48F5F80938A048093FC
:100F90008C0480918A04883048F48F5F80938A049F
:100FA00080938B04089510928C04F3CF10928B04DD
:100FB0000895CF93DF93CDB7DEB72C970FB6F89493
:100FC000DEBF0FBECDBF789484B5826084BD84B58A
:100FD000816084BD85B5826085BD85B5816085BD34
:100FE00080916E00816080936E00109281008091EC
:100FF0008100826080938100809181008160809374
:101000008100809180008160809380008091B10098
:1010100084608093B1008091B00081608093B000C3
:1010200080917A00846080937A0080917A00826057
:1010300080937A0080917A00816080937A00809119
:101040007A00806880937A001092C10088E198E26B
:101050000FB6F894A895809360000FBE909360003F
:1010600060E08EE00E946F0260E08FE00E946F02FD
:1010700060E080E10E946F0260E081E10E946F0207
:1010800062E070E08CE894E00E943E0369E070E06A
:101090008BE894E00E943E0361E085E00E946F02CD
:1010A00061E085E00E942302E2E2F2E08CE091E060
:1010B000DF019C011D9221503040E1F788E08093D0
:1010C0007702E7E3F2E087E592E004E610E020E053
:1010D00030E040E050E06AE773E400A311A322A3EC
:1010E00033A341935193619371938E179F07A9F78F
:1010F00088E08093B802E8E7F2E088E992E004E64D
:1011000010E020E030E040E050E060EA72E400A34C
:1011100011A322A333A341935193619371938E172B
:101120009F07A9F7109294021092950210929602CE
:10113000109297028CE08093BE0280E090E0AAE7D4
:10114000B3E48093BF029093C002A093C102B09316
:10115000C20280E090E0A8E4B2E48093C3029093DE
:10116000C402A093C502B093C60280E090E0A0E85C
:10117000BFE38093C7029093C802A093C902B093C3
:10118000CA028093CB029093CC02A093CD02B0937D
:10119000CE028DEC9CECACECBDE38093CF0290933F
:1011A000D002A093D102B093D2028093D302909345
:1011B000D402A093D502B093D60280E090E0A0E4E0
:1011C000BFE38093D7029093D802A093D902B09343
:1011D000DA0280E090E0A0E0B0E48093DB0290933C
:1011E000DC02A093DD02B093DE0280E090E0A8EC88
:1011F000B1E48093DF029093E002A093E102B09308
:10120000E2020E948503109225021092240210929D
:1012100002021092F9010E940C036093FA0170938C
:10122000FB018093FC019093FD010E940C036093ED
:10123000FE017093FF018093000290930102E09100
:10124000FD03F091FE0382E08083E091F903F091C9
:10125000FA031082E091FB03F091FC0383E08083AA
:1012600010920504E0910104F091020486E080836D
:10127000E091FF03F0910004808180618083E09120
:10128000FF03F0910004808188608083E091FF0378
:10129000F0910004808180688083E091FF03F091E9
:1012A000000480818F7D808380E090E0A0E4B1E441
:1012B0008093330290933402A0933502B0933602A8
:1012C0000E940C0360931D0370931E0380931F0301
:1012D000909320030E940C03609305037093060310
:1012E00080930703909308036091650370916603F0
:1012F0008CE894E00E9418036EEE72E08BE894E0B4
:101300000E9418031092260210920B0210920C02F7
:1013100010920D0210920E0211E010931B02109217
:101320001C0210921D020E940C036093170270931E
:1013300018028093190290931A020E940C03609382
:101340001302709314028093150290931602EEE23A
:10135000F3E08FE3DF011D928A95E9F70E94D20541
:10136000811108C00E94E1040E94A50510931B0290
:1013700010931D0282E090E0909325028093240256
:101380000E940C0360931E0270931F028093200240
:101390009093210260E085E00E9423020E94D70220
:1013A00061E085E00E9423020E94D702FE01379689
:1013B000F887EF8343E0242E312CA89580912402F6
:1013C000909125028230910509F417C208F414C2E5
:1013D0008330910509F42EC2049709F437C20E94A4
:1013E0000C0300910D0310910E0320910F03309117
:1013F0001003601B710B820B930B6230710581052A
:101400009105E8F00E940C0360930D0370930E03A6
:1014100080930F03909310038091020281112FC2D9
:101420008AE090E0A0E0B0E08093F1039093F203B3
:10143000A093F303B093F40381E0809302020E942F
:101440000C030091110310911203209113033091AA
:101450001403601B710B820B930B653071058105C2
:10146000910508F414C10E940C036093110370935A
:10147000120380931303909314038091240290919C
:1014800025020297029708F002C18EE00E94A00296
:1014900090932E0280932D028FE00E94A0029093E1
:1014A000300280932F0281E10E94A00290933202C9
:1014B0008093310220912D0230912E023A832983AC
:1014C00020912F02309130023C832B839E838D83A9
:1014D000FE013196AFE2B3E0808191812D913D9183
:1014E000281739070CF055C4821B930B9183808316
:1014F00032962F8138852E173F0771F769817A81DF
:10150000072E000C880B990B0E945F1320E030E03F
:1015100040E85AE30E94BE1320E030E44CE955E471
:101520000E94BE132CEA3AE048E65EE30E94BE1336
:101530006093E3027093E4028093E5029093E602E5
:101540006B817C81072E000C880B990B0E945F1326
:1015500020E030E040E85AE30E94BE1320E030E48F
:101560004CE955E40E94BE132CEA3AE048E65EE3FB
:101570000E94BE136093E7027093E8028093E90231
:101580009093EA026D817E81072E000C880B990BE7
:101590000E945F1320E030E040E85AE30E94BE134F
:1015A00020E030E44CE955E40E94BE132FE632E11E
:1015B00043E85AE30E94BE136093EB027093EC027F
:1015C0008093ED029093EE0280E10E94A002BC01A4
:1015D000990F880B990B0E945F1320E030E040E8E0
:1015E0005AE30E94BE1320E030E048EC51E40E9430
:1015F000BE132091070230910802409109025091D8
:101600000A020E9493146B017C01C0920702D092DF
:101610000802E0920902F0920A02609103027091BE
:10162000040280910502909106026F5F7F4F8F4FF9
:101630009F4F60930302709304028093050290937E
:101640000602683B3BE073078105910500F10E94AB
:101650005D139B01AC01C701B6010E94FF146093AA
:1016600033027093340280933502909336021092C5
:101670000702109208021092090210920A021092B8
:1016800003021092040210920502109206020E94B8
:101690000C030091090310910A0320910B03309170
:1016A0000C03601B710B820B930B65307105810578
:1016B000910508F479C00E940C03609309037093AC
:1016C0000A0380930B0390930C03109126021130B0
:1016D00039F48091240290912502039709F45CC3A8
:1016E00060916503709166038CE894E00E94180392
:1016F000109205031092060310920703109208033C
:101700000E940C0360930F027093100280931102E9
:10171000909312026EEE72E08BE894E00E94180340
:101720000E940C0360931D0370931E0380931F039C
:101730009093200310922C0210922B021092F70229
:101740001092F8021092F9021092FA021092FB0223
:101750001092FC021092FD021092FE021092FF0203
:1017600010920003109201031092020310920B02D8
:1017700010920C0210920D0210920E021092B902F9
:10178000109215031092160310921703109218036B
:1017900010920403109203031092BA021092BB023B
:1017A0001092BC021092BD028091240290912502F9
:1017B000039709F433C60E940C03609317027093D9
:1017C00018028093190290931A020E940C036093EE
:1017D000130270931402809315029093160280E016
:1017E00090E0892B09F4E9CD0E948001882309F457
:1017F000E4CD0E940000E1CDFFCF61E085E00E94D2
:1018000023020E940C0300911E0210911F022091DE
:10181000200230912102601B710B820B930B683EFA
:1018200073408105910508F4DACD309225022092AB
:101830002402D5CD809122029091230260E0892B71
:1018400009F461E085E00E942302C9CD60E085E0F3
:101850000E94230280911C028111C1CD22E030E060
:1018600030932502209324020E940C0360931E02F1
:1018700070931F028093200290932102B0CD8DEED1
:1018800093E00E947401181619060CF0D8CD0E943E
:101890000C030091FA011091FB012091FC013091A1
:1018A000FD01601B710B820B930B653F714081053D
:1018B000910560F00E940C036093FA017093FB01A4
:1018C0008093FC019093FD011092F9010E940C039A
:1018D0000091FE011091FF01209100023091010260
:1018E000601B710B820B930B613D77408105910565
:1018F00060F00E940C036093FE017093FF018093DF
:101900000002909301021092F9010091F9018DEE0D
:1019100093E00E94740110E0800F911F81389105BF
:1019200010F080E890E06C01C01AD10A07581E4FF1
:10193000F12CE12CCE14DF0459F10E940C036093CA
:10194000F5037093F6038093F7039093F8038DEEFD
:1019500093E00E94520197FFA4C60E940C0380905E
:10196000F5039090F603A090F703B090F803681980
:1019700079098A099B098090F1039090F203A09065
:10198000F303B090F403681579058A059B05F8F216
:101990008091F901E80EF11C5701EAE0EE16F1041E
:1019A00008F4EAC1912C80E0882483949E1408F006
:1019B000CCC1292D30E0890107581E4FD8014D9127
:1019C0005C914D3E5E4F09F087C0F8016281A7012E
:1019D000421B530B6417150611F008F07DC063809D
:1019E000748014821382C8010E9453056816790618
:1019F00009F069C0D80117968D919C91883092406A
:101A000009F061C0F80185819681833B994109F015
:101A10005AC0D8011996EC91EC3008F04AC0F0E0B9
:101A2000EC5EF24F0C94C415200D6E0DA30DCD0D80
:101A3000F00DF80DFB0DFE0D1A0E210E240E270ED3
:101A4000F8016285838570E0482F50E09B01240FE8
:101A5000351F2D3031400CF0C7C0813808F0C4C0AC
:101A60009AE0F801ADE6B3E001900D929A95E1F7A6
:101A700020E8209376033CE0D32ED80ED0926F035B
:101A8000D8011A968D919C91909378038093770357
:101A90006E5D7D4F89E793E00E94EC156D2D8DE61C
:101AA00093E00E94530590937103809370030E940A
:101AB0003A010E940C036093FE017093FF01809332
:101AC000000290930102D80114967C926E921397B3
:101AD00012968C91980E892D939468CFF801828587
:101AE000438590E050E09C01240F351F2D3031409C
:101AF0000CF07AC0C0902402D0902502B801645F37
:101B00007F4F8E5D9D4F0E94EC15D0922502C092B2
:101B100024028AE0F801ADE6B3E001900D928A95C7
:101B2000E1F7809176038068809376032CE0209320
:101B30006F03D8011A968D919C91909378038093AE
:101B400077036CE0ACCFF8016285838570E0482FA5
:101B500050E09B01240F351F203431050CF044C0A8
:101B6000813808F041C09AE0ADE6B3E001900D92F3
:101B70009A95E1F7F2E8F09376032CE0D22ED80E96
:101B8000D0926F03D8011A968D919C91909378030F
:101B900080937703625D7C4F7DCFF801828543851A
:101BA00090E050E09C01240F351F20343105E4F40F
:101BB000B801645F7F4F825D9C4F0E94EC158AE004
:101BC000F801ADE6B3E001900D928A95E1F78091BE
:101BD0007603806880937603FCE0F0936F03A9CFCF
:101BE0000E94A505811122C0C8010E94890561CF0C
:101BF0000E94D205F7CF0E94E104F4CF80912D021C
:101C000090912E029093300380932F0380912F02A6
:101C1000909130029093320380933103809131028E
:101C2000909132029093340380933303C8010E9451
:101C30006D053FCF10921C021092230210922202D7
:101C4000F5CF10921B02F2CF80921B02EFCFF8016A
:101C500062857385848595850E9471156093BE02A7
:101C6000F80186859785A089B1898093BF029093FA
:101C7000C002A093C102B093C20282899389A48951
:101C8000B5898093C3029093C402A093C502B09318
:101C9000C60286899789A08DB18D8093C7029093E3
:101CA000C802A093C902B093CA02828D938DA48DFD
:101CB000B58D8093CB029093CC02A093CD02B093CC
:101CC000CE0286A197A1A0A5B1A58093D70290933B
:101CD000D802A093D902B093DA0282A193A1A4A161
:101CE000B5A18093D3029093D402A093D502B09370
:101CF000D602868D978DA0A1B1A18093CF0290933B
:101D0000D002A093D102B093D20286A597A5A0A934
:101D1000B1A98093DF029093E002A093E102B09317
:101D2000E20282A593A5A4A5B5A58093DB029093BA
:101D3000DC02A093DD02B093DE02662319F00E945C
:101D4000850350CF80921D024FCF882381F0082F4A
:101D500010E0E016F10658F0B80167587E4FA80170
:101D600089E791E00E94F5155701A01AB10AB7E77B
:101D7000AB16B10408F0A12CA092F9010E940C034B
:101D80006093FA017093FB018093FC019093FD0135
:101D900056CB11821082ACCB0E940C03C0900F0274
:101DA000D0901002E0901102F09012026C197D099F
:101DB0008E099F09609305037093060380930703C0
:101DC000909308038091270290912802009749F090
:101DD000019709F110931D0210920403109203035E
:101DE0001AC080912B0290912C028130910509F448
:101DF00060C110F18230910509F4EAC1039709F43A
:101E000051C210931D02109204031092030310920A
:101E10002C0210922B026091030370910403625113
:101E20007D4F6B3C38E0730710F06AEC78E08BE88C
:101E300094E00E941803B8CC8091290290912A0264
:101E40008130910509F496C030F0029709F4F0C092
:101E500010931D0225C08091BE02882309F10E94C3
:101E60000C0300911D0310911E0320911F0330915C
:101E700020036B017C01C01AD10AE20AF30A209107
:101E8000BE0230E050E040E060E67AEE80E090E0B4
:101E90000E94A515C216D306E406F50608F07EC01A
:101EA0002091E3023091E4024091E5025091E60274
:101EB0006091BA027091BB028091BC029091BD0208
:101EC0000E9492144B015C018092EF029092F0020A
:101ED000A092F102B092F2022091490330914A039C
:101EE00040914B0350914C030E94BE1369877A873F
:101EF0008B879C876093F3027093F4028093F502C2
:101F00009093F60220914D0330914E0340914F0380
:101F100050915003C501B4010E94BE132091F702F5
:101F20003091F8024091F9025091FA020E94931404
:101F30002B013C014092F7025092F8026092F902A4
:101F40007092FA02C0905503D0905603E090570368
:101F5000F0905803A70196010E94A01518160CF0E6
:101F6000BAC1C092F702D092F802E092F902F09260
:101F7000FA02BDC120916103309162034091630375
:101F8000509164036091E3027091E4028091E50254
:101F90009091E6020E94581387FF82CF0E940C03A3
:101FA00060931D0370931E0380931F03909320037F
:101FB00080917702882309F4CDC060916703709106
:101FC00068038CE894E00E9418031092B9020E9402
:101FD0000C0360931503709316038093170390937B
:101FE00018038091370290913802A0913902B09184
:101FF0003A028093BA029093BB02A093BC02B093C2
:10200000BD021092F7021092F8021092F90210929B
:10201000FA0210920B0210920C0210920D02109212
:102020000E0281E090E090932C0280932B0238CF37
:1020300020916103309162034091630350916403E6
:102040006091E3027091E4028091E5029091E602D2
:102050000E945813182F111F1127111F8091BE02C3
:10206000882319F10E940C03C0901D03D0901E0319
:10207000E0901F03F09020039B01AC012C193D0957
:102080004E095F0969017A012091BE0230E050E0FB
:1020900040E060E67AEE80E090E00E94A515C2166E
:1020A000D306E406F50608F079CF112309F4F8CE3B
:1020B00075CF809177029091B902983020F01093FB
:1020C0001C028093B902E091B902E81708F046C0FB
:1020D00034E0E39FF0011124EE5DFD4F8589968980
:1020E000A789B08D8093BA029093BB02A093BC02E3
:1020F000B093BD020E940C030091150310911603CA
:102100002091170330911803AB01BC01401B510B08
:10211000620B730BE091B90284E0E89FF001112497
:10212000EE5BFD4F058916892789308D40175107D1
:102130006207730778F00E940C0360931503709395
:10214000160380931703909318038091B9028F5F51
:102150008093B90281E080931C02A2CE8091B802E4
:10216000882309F49DCE1092B9020E940C0360935B
:10217000190370931A0380931B0390931C030E940E
:102180000C036093150370931603809317039093C9
:1021900018038091780290917902A0917A02B0910F
:1021A0007B028093BA029093BB02A093BC02B093CF
:1021B000BD0260916503709166038CE894E00E9413
:1021C0001803A2E0B0E0B0932C02A0932B0268CEDB
:1021D0008091B8029091B902983020F010931C02BF
:1021E0008093B902E091B902E81708F044C0B4E066
:1021F000EB9FF0011124E858FD4F80819181A2816D
:10220000B3818093BA029093BB02A093BC02B093B7
:10221000BD020E940C03009115031091160320913A
:10222000170330911803AB01BC01401B510B620B2B
:10223000730BE091B90224E0E29FF0011124E8560B
:10224000FD4F0081118122813381401751076207C0
:10225000730708F425CE0E940C0360931503709356
:10226000160380931703909318038091B9028F5F30
:102270008093B90215CE60916703709168038CE872
:1022800094E00E9418030E940C0360932103709352
:102290002203809323039093240330922C022092F4
:1022A0002B02FECD0E940C0300912103109122030A
:1022B0002091230330912403601B710B820B930B3D
:1022C000643671058105910508F4EACD10922C025F
:1022D00010922B02E5CDF7FAF094F7F8F094A701ED
:1022E0009601C301B2010E94581387FD3ACE209196
:1022F0000B0230910C0240910D0250910E02C5016B
:10230000B4010E94921420915103309152034091E4
:102310005303509154030E94BE136B017C01C09281
:10232000FB02D092FC02E092FD02F092FE0280924B
:102330000B0290920C02A0920D02B0920E0220911C
:10234000F7023091F8024091F9025091FA02698542
:102350007A858B859C850E949314A70196010E9423
:1023600093144B015C018092FF0290920003A092B3
:102370000103B0920203C0905903D0905A03E09039
:102380005B03F0905C03A70196010E94A01518164C
:102390004CF4C092FF02D0920003E0920103F0924D
:1023A00002030CC0F7FAF094F7F8F094A701960135
:1023B000C501B4010E94581387FDEBCF20E030E047
:1023C000A9016091FF027091000380910103909137
:1023D00002030E94581387FF08C01092FF02109258
:1023E0000003109201031092020320915D033091CB
:1023F0005E0340915F03509160036091FF02709112
:10240000000380910103909102030E94BE130E9479
:1024100071157093040360930303FDCC8091260231
:102420008130A1F00E940C03609317027093180290
:102430008093190290931A020E940C036093130276
:1024400070931402809315029093160280911B02E0
:10245000882309F4C4C98090E3029090E402A0901C
:10246000E502B090E6022091E7023091E802409147
:10247000E9025091EA02C501B4010E9492146B0175
:102480007C0180912202909123028071909323021B
:10249000809322022091390330913A0340913B030B
:1024A00050913C03C501B4010E94A01587FDE3C013
:1024B000809126028130B1F50E940C030091130235
:1024C000109114022091150230911602601B710BBD
:1024D000820B930B6D3271408105910518F10091CB
:1024E000220210912302C8018160909323028093FD
:1024F00022022091450330914603409147035091B9
:1025000048036091EB027091EC028091ED02909192
:10251000EE020E94581318162CF001641093230247
:102520000093220220913D0330913E0340913F03EE
:10253000509140036091E3027091E4028091E502C2
:102540009091E6020E94581318160CF49FC08091D7
:1025500026028130D9F56091BE0280E1882E87E2A3
:10256000982EA12CB12C6623A9F070E090E080E0B9
:102570000E945D139B01AC0160E070E68AE697E47F
:102580000E94FF140E9471154B015C01880C991C7C
:10259000AA1CBB1C0E940C03009117021091180288
:1025A0002091190230911A02601B710B820B930B60
:1025B00086169706A806B90648F4809122029091E3
:1025C00023028262909323028093220200912202CE
:1025D00010912302C701B6019F77209141033091EA
:1025E000420340914303509144030E94A01587FD8C
:1025F00005C00460109323020093220280912202FE
:102600009091230220911D02222329F0886090934B
:102610002302809322020091220210912302209132
:102620003503309136034091370350913803609160
:1026300033027091340280913502909136020E94EB
:10264000581387FF05C000611093230200932202F4
:1026500080912202909123028F7E9927892B09F481
:10266000BEC881E080931C0284E090E09093250234
:1026700080932402B4C80E940C03609313027093E9
:10268000140280931502909316024CCF0E940C0303
:1026900060931702709318028093190290931A02A4
:1026A00095CFD8018D938D01BFEFEB1AFB0A42C97C
:1026B0000E949A1308F481E00895E89409C097FBFA
:1026C0003EF490958095709561957F4F8F4F9F4F09
:1026D0009923A9F0F92F96E9BB279395F69587954D
:1026E00077956795B795F111F8CFFAF4BB0F11F410
:1026F00060FF1BC06F5F7F4F8F4F9F4F16C08823B7
:1027000011F096E911C0772321F09EE8872F762FEC
:1027100005C0662371F096E8862F70E060E02AF02D
:102720009A95660F771F881FDAF7880F9695879519
:1027300097F90895990F0008550FAA0BE0E8FEEFEE
:1027400016161706E807F907C0F012161306E40775
:10275000F50798F0621B730B840B950B39F40A266E
:1027600061F0232B242B252B21F408950A2609F44C
:10277000A140A6958FEF811D811D08950E94D11360
:102780000C9442140E94341438F00E943B1420F040
:10279000952311F00C942B140C94311411240C94E7
:1027A00076140E94531470F3959FC1F3950F50E077
:1027B000551F629FF001729FBB27F00DB11D639FF3
:1027C000AA27F00DB11DAA1F649F6627B00DA11D99
:1027D000661F829F2227B00DA11D621F739FB00D3F
:1027E000A11D621F839FA00D611D221F749F3327AF
:1027F000A00D611D231F849F600D211D822F762F48
:102800006A2F11249F5750409AF0F1F088234AF024
:10281000EE0FFF1FBB1F661F771F881F9150504090
:10282000A9F79E3F510580F00C942B140C9476145C
:102830005F3FE4F3983ED4F3869577956795B79517
:10284000F795E7959F5FC1F7FE2B880F911D969531
:10285000879597F9089597F99F6780E870E060E0A1
:1028600008959FEF80EC089500240A941616170629
:1028700018060906089500240A9412161306140671
:1028800005060895092E0394000C11F4882352F0D4
:10289000BB0F40F4BF2B11F460FF04C06F5F7F4F8C
:1028A0008F4F9F4F089557FD9058440F551F59F073
:1028B0005F3F71F04795880F97FB991F61F09F3F2D
:1028C00079F087950895121613061406551FF2CF56
:1028D0004695F1DF08C0161617061806991FF1CFA6
:1028E00086957105610508940895E894BB276627CD
:1028F0007727CB0197F90895F999FECF92BD81BD55
:10290000F89A992780B50895262FF999FECF1FBA16
:1029100092BD81BD20BD0FB6F894FA9AF99A0FBE08
:10292000019608955058BB27AA270E94AA140C9418
:1029300042140E94341438F00E943B1420F039F401
:102940009F3F19F426F40C9431140EF4E095E7FB44
:102950000C942B14E92F0E94531458F3BA176207F2
:1029600073078407950720F079F4A6F50C94751485
:102970000EF4E0950B2EBA2FA02D0B01B90190019A
:102980000C01CA01A0011124FF27591B99F0593FDE
:1029900050F4503E68F11A16F040A22F232F342F26
:1029A0004427585FF3CF469537952795A795F04074
:1029B0005395C9F77EF41F16BA0B620B730B840B89
:1029C000BAF09150A1F0FF0FBB1F661F771F881F41
:1029D000C2F70EC0BA0F621F731F841F48F4879599
:1029E00077956795B795F7959E3F08F0B0CF93958B
:1029F000880F08F09927EE0F9795879508950E9404
:102A000013150C9442140E943B1458F00E94341485
:102A100040F029F45F3F29F00C942B1451110C94D1
:102A200076140C9431140E94531468F39923B1F373
:102A3000552391F3951B550BBB27AA2762177307E4
:102A4000840738F09F5F5F4F220F331F441FAA1F78
:102A5000A9F335D00E2E3AF0E0E832D09150504034
:102A6000E695001CCAF72BD0FE2F29D0660F771FE2
:102A7000881FBB1F261737074807AB07B0E809F0C8
:102A8000BB0B802DBF01FF2793585F4F3AF09E3F4D
:102A9000510578F00C942B140C9476145F3FE4F3FA
:102AA000983ED4F3869577956795B795F7959F5F90
:102AB000C9F7880F911D9695879597F90895E1E0DC
:102AC000660F771F881FBB1F621773078407BA073B
:102AD00020F0621B730B840BBA0BEE1F88F7E09596
:102AE00008950E945B1488F09F5798F0B92F99279A
:102AF000B751B0F0E1F0660F771F881F991F1AF0E9
:102B0000BA95C9F714C0B13091F00E947514B1E0C4
:102B100008950C947514672F782F8827B85F39F0C3
:102B2000B93FCCF3869577956795B395D9F73EF481
:102B300090958095709561957F4F8F4F9F4F089529
:102B40000E949A1308F48FEF0895052E97FB1EF448
:102B500000940E94BC1557FD07D00E94CA1507FCBF
:102B600003D04EF40C94BC155095409530952195AA
:102B70003F4F4F4F5F4F08959095809570956195A9
:102B80007F4F8F4F9F4F0895EE0FFF1F0590F491D9
:102B9000E02D0994A1E21A2EAA1BBB1BFD010DC05A
:102BA000AA1FBB1FEE1FFF1FA217B307E407F507FD
:102BB00020F0A21BB30BE40BF50B661F771F881FD9
:102BC000991F1A9469F760957095809590959B016F
:102BD000AC01BD01CF010895FB01DC0102C00190F1
:102BE0000D9241505040D8F708956817790768F45E
:102BF000FB01DC01E40FF51FA40FB51F02C002901A
:102C00000E9241505040D8F708950C94EC15F8946A
:022C1000FFCFF4
:102C1200000000006410B71DC8206E3BAC30D926FE
:102C22009041DC76F4516B6B5861B24D3C710550AA
:102C32002083B8ED44930FF0E8A3D6D68CB361CBD2
:102C4200B0C2649BD4D2D38678E20AA01CF2BDBD86
:102C520000000000B6010D0143010302740152019C
:022C6200660109
:00000001FF
