:100000000C945D000C9485000C9485000C94850084
:100010000C9485000C9485000C9485000C9485004C
:100020000C9485000C94D5060C9485000C948500E6
:100030000C9485000C94B0060C9485000C948500FB
:100040000C9466060C9485000C9434060C940E06F1
:100050000C9485000C9485000C9485000C9485000C
:100060000C9485000C9485000000000024002700FB
:100070002A0000000000250028002B0004040404CE
:100080000404040402020202020203030303030342
:10009000010204081020408001020408102001021F
:1000A00004081020000000080002010000030407FB
:1000B00000000000000000007E0711241FBECFEFEB
:1000C000D8E0DEBFCDBF24E0A2E5B1E001C01D92C3
:1000D000A938B207E1F711E0A0E0B1E0EAE3FBE202
:1000E00002C005900D92A235B107D9F710E0CDE519
:1000F000D0E004C02197FE010E945815CC35D107ED
:10010000C9F70E94D9070C949B150C940000CF925C
:10011000DF92EF92FF92CF93DF93CDB7DEB7C0545B
:10012000D1090FB6F894DEBF0FBECDBF80E4E0E08A
:10013000F1E0DE01119601900D928A95E1F7EAE275
:10014000F3E029E633E0CC24CA94DC2C76018191DB
:10015000B701A60148274F70552766277727440F18
:10016000551F440F551F61E070E06C0F7D1F460F57
:10017000571FDA014D915D916D917C91A4E0F69449
:10018000E794D794C794AA95D1F74C255D256E25A1
:100190007F2590E0B4E095958795BA95E1F7092E13
:1001A000000CAA0BBB0B84279527A627B7278F70B7
:1001B0009927AA27BB27880F991F880F991FA1E0AD
:1001C000B0E0AC0FBD1F8A0F9B1FDC01CD90DD900E
:1001D000ED90FC90B4E07695679557954795BA9564
:1001E000D1F7C426D526E626F726C094D094E0940D
:1001F000F0942E173F0709F0AACFC701B601C05CE3
:10020000DF4F0FB6F894DEBF0FBECDBFDF91CF91A9
:10021000FF90EF90DF90CF900895AF92BF92CF9272
:10022000DF92EF92FF920F931F93CF93DF936C01B6
:100230007B018B01040F151FEB015E01AE18BF0897
:10024000C017D10759F06991D601ED91FC91019049
:10025000F081E02DC6010995892B79F7C501DF9161
:10026000CF911F910F91FF90EF90DF90CF90BF90B3
:10027000AF90089540916B0350E069E673E089EE1A
:1002800093E00C940D01FC01538D448D252F30E03B
:10029000842F90E0821B930B541710F0CF96089593
:1002A00001970895FC01918D828D981761F0A28DC0
:1002B000AE0FBF2FB11D5D968C91928D9F5F9F7386
:1002C000928F90E008958FEF9FEF0895FC01918D3C
:1002D000828D981731F0828DE80FF11D858D90E0A9
:1002E00008958FEF9FEF0895FC01918D228D892F46
:1002F00090E0805C9F4F821B91098F73992708952E
:1003000089EE93E00E94740121E0892B09F420E03A
:10031000822F089580E090E0892B29F00E948001CF
:1003200081110C9400000895FC01A48DA80FB92F31
:10033000B11DA35ABF4F2C91848D90E001968F730D
:100340009927848FA689B7892C93A089B1898C912C
:10035000837080648C93938D848D981306C002887B
:10036000F389E02D80818F7D80830895EF92FF9245
:100370000F931F93CF93DF93EC0181E0888F9B8DC8
:100380008C8D98131AC0E889F989808185FF15C082
:100390009FB7F894EE89FF896083E889F9898081A5
:1003A0008370806480839FBF81E090E0DF91CF9174
:1003B0001F910F91FF90EF900895F62E0B8D10E096
:1003C0000F5F1F4F0F731127E02E8C8D8E110CC005
:1003D0000FB607FCFACFE889F989808185FFF5CF50
:1003E000CE010E949401F1CFEB8DEC0FFD2FF11D9A
:1003F000E35AFF4FF0829FB7F8940B8FEA89FB898D
:1004000080818062CFCFCF93DF93EC01888D8823EA
:10041000B9F0AA89BB89E889F9898C9185FD03C067
:10042000808186FD0DC00FB607FCF7CF8C9185FF4C
:10043000F2CF808185FFEDCFCE010E949401E9CFFC
:10044000DF91CF91089590E0FC01EC55FF4F24918E
:10045000FC01E057FF4F3491FC01E458FF4FE49159
:10046000EE23C9F0222339F0233001F1A8F4213022
:1004700019F1223029F1F0E0EE0FFF1FEE58FF4F87
:10048000A591B4918FB7F894EC91611126C0309585
:100490003E233C938FBF08952730A9F02830C9F040
:1004A000243049F7809180008F7D03C080918000C7
:1004B0008F7780938000DFCF84B58F7784BDDBCFCB
:1004C00084B58F7DFBCF8091B0008F778093B00093
:1004D000D2CF8091B0008F7DF9CF3E2BDACFCF9372
:1004E000DF9390E0FC01E057FF4F249184589F4F29
:1004F000FC0184918823D1F090E0880F991FFC01C2
:10050000E859FF4FA591B491FC01EE58FF4FC591FA
:10051000D49161110EC09FB7F8948C91E22FE095B1
:100520008E238C932881E223E8839FBFDF91CF91B4
:1005300008958FB7F894EC91E22BEC938FBFF6CF30
:100540008E50806480937C0080917A0080648093D8
:100550007A0080917A0086FDFCCF8091780090919E
:10056000790008953FB7F8948091750190917601D4
:10057000A0917701B091780126B5A89B05C02F3FC7
:1005800019F00196A11DB11D3FBFBA2FA92F982FB9
:100590008827BC01CD01620F711D811D911D42E0B4
:1005A000660F771F881F991F4A95D1F708958F927C
:1005B0009F92AF92BF92CF92DF92EF92FF920E94F2
:1005C000B2024B015C0184E6C82ED12CE12CF12C47
:1005D0000E94B202681979098A099B09683E734032
:1005E00081059105A8F321E0C21AD108E108F108BC
:1005F00088EE880E83E0981EA11CB11CC114D104A2
:10060000E104F10429F7FF90EF90DF90CF90BF90C5
:10061000AF909F908F9008952FB7F89460917101DB
:100620007091720180917301909174012FBF0895B0
:10063000DC01EC918FEF8E0F8830F8F4CB016B3C2E
:10064000784014F08AEC98E08E3E22E0920714F491
:100650008EEE92E00897AC01440F452F441F550BD6
:100660002E2F30E0F901EE0FFF1FE20FF31FEB5AC0
:10067000FE4F4183880F8095828308951F93CF9307
:10068000DF93EC01162F80915401811122C0E5E522
:10069000F1E08DE691E03BE027E534832583339656
:1006A0008E179F07D1F78EE3809356011092530166
:1006B00010925201109270001092B00082E080936C
:1006C000B1001092B20081E087BB809370008093EC
:1006D000540188818823A1F061E0812F0E946F027C
:1006E000E8818E2F90E0FC01EE0FFF1FE80FF91F4D
:1006F000EB5AFE4F1F716081607E612B60626083E8
:100700008881DF91CF911F9108952F923F924F9250
:100710005F926F927F928F929F92AF92BF92CF9291
:10072000DF92EF92FF920F931F93CF93DF93CDB79A
:10073000DEB762970FB6F894DEBF0FBECDBF209133
:10074000C3023091C4024091C5025091C602298370
:100750003A834B835C838091C7029091C802A09139
:10076000C902B091CA028D839E83AF83B88740903F
:10077000CB025090CC026090CD027090CE0220E06F
:1007800030E04AE754E4C301B2010E94521320E072
:1007900030E040EE50E40E9493140E9405156987F2
:1007A0007A878B879C8788E080937302C090BB0216
:1007B000D090BC02E090BD02F090BE0225E239E488
:1007C00042E15EE3C701B6010E9452136D877E8746
:1007D0008F87988BA3E3B2E0BA8BA98B812C912CE5
:1007E0005401E989FA8981929192A192B192FA8B8E
:1007F000E98B29853A854B855C85248F358F468F1B
:10080000578F2D853E854F855889C501B4010E94BB
:1008100027144B015C01AC019B01C701B6010E948A
:10082000EC1287FF02C046015701E989FA89EF54AB
:10083000F240B9F6C0924F02D0925002E0925102BB
:10084000F0925202A301920169817A818B819C818D
:100850000E94261420E030E04AE754E40E9452133C
:100860000E94051560936F0270937002809371026D
:10087000909372028090CF029090D002A090D1020B
:10088000B090D20220E030E04AE754E4C501B40160
:100890000E94521320E030E040EE50E40E94931496
:1008A0000E9405159B0150E040E029833A834B8369
:1008B0005C8388E08093B4021091BF023091C00243
:1008C0003D874091C10249870091C202212F502FDC
:1008D000C701B6010E94261425E239E442E15EE335
:1008E0000E9452132B013C0184E7282E82E0382E0F
:1008F000D101CD92DD92ED92FD921D0129813A81C7
:100900004B815C815C962D933D934D935C935F97F7
:10091000A3019201C701B6010E9426146B017C015C
:10092000AC019B01612F7D858985902F0E94341534
:10093000181624F4C12EDD84E984F02EB0E92B16BC
:10094000B2E03B06A9F6812F9D85A985B02F809343
:10095000900290939102A0939202B0939302A5010A
:1009600094016D817E818F8198850E94261420E0FC
:1009700030E04AE754E40E9452130E940515609348
:10098000B0027093B1028093B2029093B30281E0FF
:1009900062960FB6F894DEBF0FBECDBFDF91CF9148
:1009A0001F910F91FF90EF90DF90CF90BF90AF908D
:1009B0009F908F907F906F905F904F903F902F907F
:1009C0000895EAE2F3E082E0808380E090E0A0E333
:1009D000B1E487839087A187B28712821182148243
:1009E00013828CEE91EFAEE7B4E483879487A587FA
:1009F000B6878CEE91EFAEE7B4EC8787908BA18B36
:100A0000B28B80E090E0A4EBB2E4838B948BA58B57
:100A1000B68B8DEC9CECACECBDE3878B908FA18FFB
:100A2000B28F80E090E0A8E0B1E4838F948FA58F2F
:100A3000B68F8AE097EDA3E2BCE3878F90A3A1A3D2
:100A4000B2A313A214A215A216A280E090E0AFE216
:100A5000B4E487A390A7A1A7B2A780E090E0AAE79B
:100A6000B4E483A794A7A5A7B6A780E090E0A0EC84
:100A7000BFE387A790ABA1ABB2AB80E090E0A0EA68
:100A8000B1E483AB94ABA5ABB6AB8CED95E090AF86
:100A900087AB8EEE92E092AF81AF13AE14AE15AE7F
:100AA00016AE81E00895482FFC0190E080E02E2FE3
:100AB000241B261788F42191922728E030E0DC01DE
:100AC000880F991FB7FF04C051E2852750E1952791
:100AD00021503109A1F7EBCF0895CF93DF93FC01AB
:100AE000C9E6D3E09AE0DE0101900D929A95E1F714
:100AF0008985806889878AE08A831C821B826AE0F4
:100B0000CE010E9453059C838B83DF91CF910C947F
:100B10003A01CF93DF93FC01C9E6D3E09AE0DE010E
:100B200001900D929A95E1F78985806489878AE022
:100B30008A831C821B826AE0CE010E9453059C833B
:100B40008B83DF91CF910C943A010F931F93CF9336
:100B5000DF9382E080932A0310926503109266036C
:100B600010926703109268030E94870060936503E8
:100B70007093660380936703909368030AE213E01F
:100B8000D0E0C0E0F80161918F01CE010E941814FD
:100B90002196CF33D105B1F781E0DF91CF911F913D
:100BA0000F910895CF92DF92EF92FF920F931F93D0
:100BB000CF93DF930AE213E0D0E0C0E0CE010E94C1
:100BC0001014F80181938F012196CF33D105B1F72D
:100BD000C0906503D0906603E0906703F0906803CF
:100BE00010926503109266031092670310926803D7
:100BF0000E948700C616D706E806F90629F481E0A8
:100C000090912A03923009F080E0DF91CF911F91FB
:100C10000F91FF90EF90DF90CF9008951F920F9269
:100C20000FB60F9211242F933F934F935F936F93BF
:100C30007F938F939F93AF93BF93EF93FF9389EE2F
:100C400093E00E949401FF91EF91BF91AF919F912A
:100C50008F917F916F915F914F913F912F910F9065
:100C60000FBE0F901F9018951F920F920FB60F9204
:100C700011242F938F939F93EF93FF93E091F903A8
:100C8000F091FA038081E091FF03F091000482FD6E
:100C90001BC09081809102048F5F8F7320910304A9
:100CA000821741F0E0910204F0E0E751FC4F958F8C
:100CB00080930204FF91EF919F918F912F910F905C
:100CC0000FBE0F901F9018958081F4CF1F920F9246
:100CD0000FB60F9211242F933F938F939F93AF934F
:100CE000BF938091710190917201A0917301B091B5
:100CF00074013091700123E0230F2D3758F50196D0
:100D0000A11DB11D20937001809371019093720118
:100D1000A0937301B0937401809175019091760155
:100D2000A0917701B09178010196A11DB11D80932A
:100D3000750190937601A0937701B0937801BF91EC
:100D4000AF919F918F913F912F910F900FBE0F9078
:100D50001F90189526E8230F0296A11DB11DD2CF32
:100D60001F920F920FB60F9211242F933F934F9320
:100D70005F936F937F938F939F93AF93BF93EF9303
:100D8000FF93F0E0E0E00995FF91EF91BF91AF9103
:100D90009F918F917F916F915F914F913F912F9193
:100DA0000F900FBE0F901F9018951F920F920FB6C5
:100DB0000F9211242F933F934F935F936F937F93E1
:100DC0008F939F93AF93BF93EF93FF9380915201C3
:100DD0008F5F80935201E0915301209152018E2F39
:100DE00090E0FC01EE0FFF1FE80FF91FEB5AFE4FDA
:100DF0008181E091530182131DC08E2F90E0FC0190
:100E0000EE0FFF1FE80FF91FEB5AFE4F8281809310
:100E1000B200FF91EF91BF91AF919F918F917F9120
:100E20006F915F914F913F912F910F900FBE0F9057
:100E30001F901895209152018E2F90E0FC01EE0F2B
:100E4000FF1FE80FF91FEB5AFE4F8181821708F749
:100E5000E09153018E2F90E0FC01EE0FFF1FE80F91
:100E6000F91FEB5AFE4F808185FF10C0E0915301BE
:100E70008E2F90E0FC01EE0FFF1FE80FF91FEB5AD9
:100E8000FE4F808160E08F710E94230280915301A8
:100E90008F5F80935301109252011092B2008091A3
:100EA0005301882319F1809153018930F8F4E091BE
:100EB00053018E2F90E0FC01EE0FFF1FE80FF91F8A
:100EC000EB5AFE4F808185FFA4CFE09153018E2F16
:100ED00090E0FC01EE0FFF1FE80FF91FEB5AFE4FE9
:100EE000808161E08F710E94230293CF8091530132
:100EF000893008F48ECF109253018BCF1092EC03FF
:100F00001092EB0388EE93E0A0E0B0E08093ED0355
:100F10009093EE03A093EF03B093F00384E491E089
:100F20009093EA038093E90385EC90E09093F603B5
:100F30008093F50384EC90E09093F8038093F7039B
:100F400080EC90E09093FA038093F90381EC90E0B9
:100F50009093FC038093FB0382EC90E09093FE035C
:100F60008093FD0386EC90E0909300048093FF0350
:100F700010920204109203041092040410920504CB
:100F800080918604883078F48F5F80938604809304
:100F9000880480918604883048F48F5F80938604AB
:100FA00080938704089510928804F3CF10928704E9
:100FB0000895CF93DF93CDB7DEB728970FB6F89497
:100FC000DEBF0FBECDBF789484B5826084BD84B58A
:100FD000816084BD85B5826085BD85B5816085BD34
:100FE00080916E00816080936E00109281008091EC
:100FF0008100826080938100809181008160809374
:101000008100809180008160809380008091B10098
:1010100084608093B1008091B00081608093B000C3
:1010200080917A00846080937A0080917A00826057
:1010300080937A0080917A00816080937A00809119
:101040007A00806880937A001092C10088E198E26B
:101050000FB6F894A895809360000FBE909360003F
:1010600060E08EE00E946F0260E08FE00E946F02FD
:1010700060E080E10E946F0260E081E10E946F0207
:1010800062E070E088E894E00E943E0369E070E06E
:1010900087E894E00E943E0361E085E00E946F02D1
:1010A00061E085E00E942302EEE1F2E08CE091E055
:1010B000DF019C011D9221503040E1F788E08093D0
:1010C0007302E3E3F2E083E592E004E610E020E05F
:1010D00030E040E050E06AE773E400A311A322A3EC
:1010E00033A341935193619371938E179F07A9F78F
:1010F00088E08093B402E4E7F2E084E992E004E659
:1011000010E020E030E040E050E060EA72E400A34C
:1011100011A322A333A341935193619371938E172B
:101120009F07A9F7109290021092910210929202DA
:10113000109293028CE08093BA0280E090E0AAE7DC
:10114000B3E48093BB029093BC02A093BD02B09322
:10115000BE0280E090E0A8E4B2E48093BF029093E6
:10116000C002A093C102B093C20280E090E0A0E868
:10117000BFE38093C3029093C402A093C502B093CF
:10118000C6028093C7029093C802A093C902B0938D
:10119000CA028DEC9CECACECBDE38093CB02909347
:1011A000CC02A093CD02B093CE028093CF02909355
:1011B000D002A093D102B093D20280E090E0A0E4EC
:1011C000BFE38093D3029093D402A093D502B0934F
:1011D000D60280E090E0A0E0B0E48093D702909344
:1011E000D802A093D902B093DA0280E090E0A8EC94
:1011F000B1E48093DB029093DC02A093DD02B09314
:10120000DE020E94850310922102109220021092A9
:1012100002021092F9010E940C036093FA0170938C
:10122000FB018093FC019093FD010E940C036093ED
:10123000FE017093FF018093000290930102E09100
:10124000F903F091FA0382E08083E091F503F091D5
:10125000F6031082E091F703F091F80383E08083B6
:1012600010920104E091FD03F091FE0386E080837B
:10127000E091FB03F091FC03808180618083E09129
:10128000FB03F091FC03808188608083E091FB0385
:10129000F091FC03808180688083E091FB03F091F2
:1012A000FC0380818F7D808380E090E0A0E4B1E446
:1012B00080932F0290933002A0933102B0933202B8
:1012C0000E940C036093190370931A0380931B030D
:1012D00090931C030E940C0360930103709302031C
:1012E0008093030390930403609161037091620300
:1012F00088E894E00E9418036EEE72E087E894E0BC
:101300000E941803109222021092170210921802E3
:10131000109219020E940C0360931302709314023E
:1013200080931502909316020E940C0360930F02A3
:10133000709310028093110290931202EAE2F3E09C
:101340008FE3DF011D928A95E9F70E94D205811192
:1013500009C00E94E1040E94A50581E08093170264
:101360008093190282E090E0909321028093200202
:101370000E940C0360931A0270931B0280931C025C
:1013800090931D0260E085E00E9423020E94D70234
:1013900061E085E00E9423020E94D702FE01379699
:1013A000F887EF8343E0242E312CA895809120020A
:1013B000909121028230910509F403C208F400C221
:1013C000049709F41BC20E940C03009109031091B9
:1013D0000A0320910B0330910C03601B710B820BED
:1013E000930B6230710581059105E8F00E940C03B2
:1013F0006093090370930A0380930B0390930C038B
:1014000080910202811113C28AE090E0A0E0B0E076
:101410008093ED039093EE03A093EF03B093F0035A
:1014200081E0809302020E940C0300910D03109151
:101430000E0320910F0330911003601B710B820B80
:10144000930B653071058105910508F414C10E9464
:101450000C0360930D0370930E0380930F0390931E
:10146000100380912002909121020297029708F0C8
:1014700002C18EE00E94A00290932A02809329026A
:101480008FE00E94A00290932C0280932B0281E1B6
:101490000E94A00290932E0280932D022091290297
:1014A00030912A023A83298320912B0230912C0219
:1014B0003C832B839E838D83FE013196ABE2B3E0A8
:1014C000808191812D913D91281739070CF039C405
:1014D000821B930B9183808332962F8138852E1740
:1014E0003F0771F769817A81072E000C880B990BF1
:1014F0000E94F31220E030E040E85AE30E945213C9
:1015000020E030E44CE955E40E9452132CEA3AE022
:1015100048E65EE30E9452136093DF027093E0029C
:101520008093E1029093E2026B817C81072E000C94
:10153000880B990B0E94F31220E030E040E85AE358
:101540000E94521320E030E44CE955E40E9452130B
:101550002CEA3AE048E65EE30E9452136093E3020D
:101560007093E4028093E5029093E6026D817E81A0
:10157000072E000C880B990B0E94F31220E030E03C
:1015800040E85AE30E94521320E030E44CE955E46D
:101590000E9452132FE632E143E85AE30E945213AD
:1015A0006093E7027093E8028093E9029093EA0265
:1015B00080E10E94A002BC01990F880B990B0E9448
:1015C000F31220E030E040E85AE30E94521320E09A
:1015D00030E048EC51E40E94521320910702309110
:1015E00008024091090250910A020E9427146B01DF
:1015F0007C01C0920702D0920802E0920902F092A8
:101600000A02609103027091040280910502909198
:1016100006026F5F7F4F8F4F9F4F6093030270935F
:1016200004028093050290930602683B3BE0730737
:101630008105910500F10E94F1129B01AC01C701E7
:10164000B6010E94931460932F027093300280932E
:101650003102909332021092070210920802109207
:10166000090210920A0210920302109204021092D0
:101670000502109206020E940C03009105031091CE
:1016800006032091070330910803601B710B820B46
:10169000930B653071058105910508F469C00E94BE
:1016A0000C036093050370930603809307039093E4
:1016B000080310912202113039F480912002909198
:1016C0002102039709F440C36091610370916203A2
:1016D00088E894E00E94180310920103109202031C
:1016E00010920303109204030E940C0360930B02F8
:1016F00070930C0280930D0290930E026EEE72E0D6
:1017000087E894E00E9418030E940C036093190379
:1017100070931A0380931B0390931C03109228026A
:10172000109227021092F3021092F4021092F50226
:101730001092F6021092FB021092FC021092FD022F
:101740001092FE021092B502109211031092120331
:101750001092130310921403109200031092FF02D0
:101760001092B6021092B7021092B8021092B9020B
:101770008091200290912102039709F4E7C50E940D
:101780000C036093130270931402809315029093DC
:1017900016020E940C0360930F0270931002809354
:1017A00011029093120280E090E0892B09F4FDCDA4
:1017B0000E948001882309F4F8CD0E940000F5CD35
:1017C000FFCF61E085E00E9423020E940C0300919C
:1017D0001A0210911B0220911C0230911D02601B05
:1017E000710B820B930B683E73408105910508F4E1
:1017F000EACD3092210220922002E5CD60E085E022
:101800000E942302809118028111DDCD22E030E098
:1018100030932102209320020E940C0360931A024D
:1018200070931B0280931C0290931D02CCCD89EE15
:1018300093E00E947401181619060CF0F4CD0E9472
:101840000C030091FA011091FB012091FC013091F1
:10185000FD01601B710B820B930B653F714081058D
:10186000910560F00E940C036093FA017093FB01F4
:101870008093FC019093FD011092F9010E940C03EA
:101880000091FE011091FF012091000230910102B0
:10189000601B710B820B930B613D774081059105B5
:1018A00060F00E940C036093FE017093FF0180932F
:1018B0000002909301021092F9010091F90189EE62
:1018C00093E00E94740110E0800F911F8138910510
:1018D00010F080E890E06C01C01AD10A07581E4F42
:1018E000F12CE12CCE14DF0459F10E940C0360931B
:1018F000F1037093F2038093F3039093F40389EE62
:1019000093E00E94520197FF60C60E940C038090F2
:10191000F1039090F203A090F303B090F4036819E0
:1019200079098A099B098090ED039090EE03A090BD
:10193000EF03B090F003681579058A059B05F8F26E
:101940008091F901E80EF11C5701EAE0EE16F1046E
:1019500008F4EAC1912C80E0882483949E1408F056
:10196000CCC1292D30E0890107581E4FD8014D9177
:101970005C914D3E5E4F09F087C0F8016281A7017E
:10198000421B530B6417150611F008F07DC06380ED
:10199000748014821382C8010E9453056816790668
:1019A00009F069C0D80117968D919C9188309240BA
:1019B00009F061C0F80185819681833B994109F066
:1019C0005AC0D8011996EC91EC3008F04AC0F0E00A
:1019D000E451F34F0C945815F80C460D7B0DA50DF2
:1019E000C80DD00DD30DD60DF20DF90DFC0DFF0D68
:1019F000F8016285838570E0482F50E09B01240F39
:101A0000351F2D3031400CF0C7C0813808F0C4C0FC
:101A10009AE0F801A9E6B3E001900D929A95E1F7FA
:101A200020E8209372033CE0D32ED80ED0926B03B3
:101A3000D8011A968D919C919093740380937303AF
:101A4000625E7D4F85E793E00E9480156D2D89E6EB
:101A500093E00E94530590936D0380936C030E9462
:101A60003A010E940C036093FE017093FF01809382
:101A7000000290930102D80114967C926E92139703
:101A800012968C91980E892D939468CFF8018285D7
:101A9000438590E050E09C01240F351F2D303140EC
:101AA0000CF07AC0C0902002D0902102B801645F8F
:101AB0007F4F825E9D4F0E948015D0922102C0927E
:101AC00020028AE0F801A9E6B3E001900D928A9520
:101AD000E1F7809172038068809372032CE0209379
:101AE0006B03D8011A968D919C9190937403809307
:101AF00073036CE0ACCFF8016285838570E0482FFA
:101B000050E09B01240F351F203431050CF044C0F8
:101B1000813808F041C09AE0A9E6B3E001900D9247
:101B20009A95E1F7F2E8F09372032CE0D22ED80EEA
:101B3000D0926B03D8011A968D919C919093740367
:101B400080937303665D7C4F7DCFF801828543856A
:101B500090E050E09C01240F351F20343105E4F45F
:101B6000B801645F7F4F865D9C4F0E9480158AE0BC
:101B7000F801A9E6B3E001900D928A95E1F7809112
:101B80007203806880937203FCE0F0936B03A9CF2B
:101B90000E94A505811122C0C8010E94890561CF5C
:101BA0000E94D205F7CF0E94E104F4CF8091290270
:101BB00090912A0290932C0380932B0380912B0207
:101BC00090912C0290932E0380932D0380912D02EF
:101BD00090912E029093300380932F03C8010E94AE
:101BE0006D053FCF1092180210921F0210921E0234
:101BF000F5CF10921702F2CF80921702EFCFF801C3
:101C000062857385848595850E9405156093BA0267
:101C1000F80186859785A089B1898093BB0290934E
:101C2000BC02A093BD02B093BE0282899389A489AD
:101C3000B5898093BF029093C002A093C102B09374
:101C4000C20286899789A08DB18D8093C30290933B
:101C5000C402A093C502B093C602828D938DA48D59
:101C6000B58D8093C7029093C802A093C902B09328
:101C7000CA0286A197A1A0A5B1A58093D302909393
:101C8000D402A093D502B093D60282A193A1A4A1BD
:101C9000B5A18093CF029093D002A093D102B093CC
:101CA000D202868D978DA0A1B1A18093CB02909393
:101CB000CC02A093CD02B093CE0286A597A5A0A991
:101CC000B1A98093DB029093DC02A093DD02B09374
:101CD000DE0282A593A5A4A5B5A58093D702909313
:101CE000D802A093D902B093DA02662319F00E94B9
:101CF000850350CF809219024FCF882381F0082F9F
:101D000010E0E016F10658F0B80167587E4FA801C0
:101D100089E791E00E9489155701A01AB10AB7E737
:101D2000AB16B10408F0A12CA092F9010E940C039B
:101D30006093FA017093FB018093FC019093FD0185
:101D400072CB11821082C8CB0E940C03C0900B0290
:101D5000D0900C02E0900D02F0900E026C197D09FB
:101D60008E099F096093010370930203809303031C
:101D7000909304038091230290912402009749F0EC
:101D8000019709F110931902109200031092FF02BB
:101D90001AC080912702909128028130910509F4A0
:101DA0004EC110F18230910509F4D8C1039709F4AE
:101DB0003FC210931902109200031092FF0210927A
:101DC0002802109227026091FF0270910003625175
:101DD0007D4F6B3C38E0730710F06AEC78E087E8E1
:101DE00094E00E941803C4CC8091250290912602B1
:101DF0008130910509F494C030F0029709F4DEC0F7
:101E00001093190225C08091BA02882309F10E941B
:101E10000C030091190310911A0320911B033091B8
:101E20001C036B017C01C01AD10AE20AF30A20915B
:101E3000BA0230E050E040E060E67AEE80E090E008
:101E40000E943915C216D306E406F50608F07CC0D8
:101E50002091DF023091E0024091E1025091E202D4
:101E60006091B6027091B7028091B8029091B90268
:101E70000E9426146B017C01C092EB02D092EC020E
:101E8000E092ED02F092EE0220914503309146037C
:101E900040914703509148030E9452132B013C018B
:101EA0004092EF025092F0026092F1027092F202C0
:101EB0002091490330914A0340914B0350914C03C8
:101EC000C701B6010E9452132091F3023091F4022F
:101ED0004091F5025091F6020E9427144B015C01DB
:101EE0008092F3029092F402A092F502B092F60270
:101EF000C0905103D0905203E0905303F0905403EC
:101F0000A70196010E94341518160CF0AAC1C092C0
:101F1000F302D092F402E092F502F092F602ADC123
:101F200020915D0330915E0340915F035091600307
:101F30006091DF027091E0028091E1029091E202F3
:101F40000E94EC1287FF84CF0E940C036093190358
:101F500070931A0380931B0390931C038091730268
:101F6000882309F4BDC0609163037091640388E81D
:101F700094E00E9418031092B5020E940C03609333
:101F800011037093120380931303909314038091B1
:101F9000330290913402A0913502B09136028093C1
:101FA000B6029093B702A093B802B093B90281E051
:101FB00090E090932802809327024ACF20915D03FE
:101FC00030915E0340915F03509160036091DF02A6
:101FD0007091E0028091E1029091E2020E94EC1285
:101FE000182F111F1127111F8091BA02882319F190
:101FF0000E940C03C0901903D0901A03E0901B03B9
:10200000F0901C039B01AC012C193D094E095F099E
:1020100069017A012091BA0230E050E040E060E6C8
:102020007AEE80E090E00E943915C216D306E406ED
:10203000F50608F089CF112309F40ACF85CF8091E6
:1020400073029091B502983020F01093180280939B
:10205000B502E091B502E81708F046C034E0E39F0E
:10206000F0011124E25EFD4F85899689A789B08D24
:102070008093B6029093B702A093B802B093B902CE
:102080000E940C030091110310911203209113037D
:1020900030911403AB01BC01401B510B620B730B5D
:1020A000E091B50284E0E89FF0011124E25CFD4F6D
:1020B000058916892789308D4017510762077307F4
:1020C00078F00E940C0360931103709312038093C5
:1020D0001303909314038091B5028F5F8093B50230
:1020E00081E080931802B4CE8091B402882309F471
:1020F000AFCE1092B5020E940C036093150370934B
:10210000160380931703909318030E940C036093A7
:10211000110370931203809313039093140380911F
:10212000740290917502A0917602B091770280932B
:10213000B6029093B702A093B802B093B90260912F
:1021400061037091620388E894E00E941803A2E0A2
:10215000B0E0B0932802A09327027ACE8091B40217
:102160009091B502983020F0109318028093B50238
:10217000E091B502E81708F044C0B4E0EB9FF0012D
:102180001124EC58FD4F80819181A281B38180930D
:10219000B6029093B702A093B802B093B9020E941E
:1021A0000C0300911103109112032091130330913D
:1021B0001403AB01BC01401B510B620B730BE0918C
:1021C000B50224E0E29FF0011124EC56FD4F00819E
:1021D000118122813381401751076207730708F488
:1021E00037CE0E940C036093110370931203809307
:1021F0001303909314038091B5028F5F8093B5020F
:1022000027CE609163037091640388E894E00E9494
:1022100018030E940C0360931D0370931E038093A8
:102220001F0390932003309228022092270210CEA1
:102230000E940C0300911D0310911E0320911F03A7
:1022400030912003601B710B820B930B6436710578
:102250008105910508F4FCCD109228021092270206
:10226000F7CDF7FAF094F7F8F094A7019601C501BD
:10227000B4010E94EC1287FD4ACE2091F302309106
:10228000F4024091F5025091F602C301B2010E949E
:1022900027144B015C018092FB029092FC02A092F9
:1022A000FD02B092FE02C0905503D0905603E0901C
:1022B0005703F0905803A70196010E943415181691
:1022C0004CF4C092FB02D092FC02E092FD02F0922C
:1022D000FE020CC0F7FAF094F7F8F094A70196010B
:1022E000C501B4010E94EC1287FDEBCF20E030E085
:1022F000A9016091FB027091FC028091FD02909116
:10230000FE020E94EC1287FF08C01092FB0210929E
:10231000FC021092FD021092FE02209159033091AE
:102320005A0340915B0350915C036091FB027091F2
:10233000FC028091FD029091FE020E9452130E94C5
:102340000515709300036093FF023DCD809122023A
:102350008130A1F00E940C03609313027093140269
:1023600080931502909316020E940C0360930F0253
:1023700070931002809311029093120280911702C1
:10238000882309F410CAC090DF02D090E002E090E8
:10239000E102F090E2022091E3023091E4024091E8
:1023A000E5025091E602C701B6010E9426144B01D6
:1023B0005C0180911E0290911F02882790931F025A
:1023C00080931E02209135033091360340913703EC
:1023D00050913803C701B6010E94341587FDDFC054
:1023E000809122028130B1F50E940C0300910F020E
:1023F000109110022091110230911202601B710B9A
:10240000820B930B6D3271408105910518F100919B
:102410001E0210911F02C801816090931F028093D9
:102420001E02209141033091420340914303509199
:1024300044036091E7027091E8028091E902909173
:10244000EA020E94EC1218162CF0016410931F028D
:1024500000931E022091390330913A0340913B03CF
:1024600050913C036091DF027091E0028091E102A3
:102470009091E2020E94EC1218160CF49BC080911D
:1024800022028130D9F56091BA0280E1C82E87E23C
:10249000D82EE12CF12C6623A9F070E090E080E0CA
:1024A0000E94F1129B01AC0160E070E68AE697E4BD
:1024B0000E9493140E9405156B017C01CC0CDD1C5D
:1024C000EE1CFF1C0E940C030091130210911402D9
:1024D0002091150230911602601B710B820B930B39
:1024E000C616D706E806F90648F480911E029091B8
:1024F0001F02826290931F0280931E02C501B401E5
:102500009F7720913D0330913E0340913F035091CE
:1025100040030E94341587FD09C080911E029091EE
:102520001F02846090931F0280931E028091190203
:10253000882349F080911E0290911F028860909339
:102540001F0280931E02209131033091320340918B
:1025500033035091340360912F02709130028091C7
:102560003102909132020E94EC1287FF09C08091E3
:102570001E0290911F02806190931F0280931E02A1
:1025800080911E02882309F40EC981E0809318020D
:1025900084E090E0909321028093200204C90E947D
:1025A0000C0360930F0270931002809311029093BA
:1025B000120250CF0E940C03609313027093140216
:1025C000809315029093160299CFD8018D938D01B7
:1025D000BFEFEB1AFB0A86C90E942E1308F481E0B4
:1025E0000895E89409C097FB3EF490958095709506
:1025F00061957F4F8F4F9F4F9923A9F0F92F96E94F
:10260000BB279395F695879577956795B795F111C3
:10261000F8CFFAF4BB0F11F460FF1BC06F5F7F4F60
:102620008F4F9F4F16C0882311F096E911C0772372
:1026300021F09EE8872F762F05C0662371F096E87B
:10264000862F70E060E02AF09A95660F771F881F4A
:10265000DAF7880F9695879597F90895990F0008EE
:10266000550FAA0BE0E8FEEF16161706E807F90764
:10267000C0F012161306E407F50798F0621B730BFF
:10268000840B950B39F40A2661F0232B242B252B80
:1026900021F408950A2609F4A140A6958FEF811D23
:1026A000811D08950E9465130C94D6130E94C813CF
:1026B00038F00E94CF1320F0952311F00C94BF1333
:1026C0000C94C51311240C940A140E94E71370F3A0
:1026D000959FC1F3950F50E0551F629FF001729FC7
:1026E000BB27F00DB11D639FAA27F00DB11DAA1FD6
:1026F000649F6627B00DA11D661F829F2227B00D23
:10270000A11D621F739FB00DA11D621F839FA00DAD
:10271000611D221F749F3327A00D611D231F849FFD
:10272000600D211D822F762F6A2F11249F57504054
:102730009AF0F1F088234AF0EE0FFF1FBB1F661FCF
:10274000771F881F91505040A9F79E3F510580F098
:102750000C94BF130C940A145F3FE4F3983ED4F337
:10276000869577956795B795F795E7959F5FC1F73C
:10277000FE2B880F911D9695879597F9089597F9E7
:102780009F6780E870E060E008959FEF80EC089517
:1027900000240A9416161706180609060895002440
:1027A0000A9412161306140605060895092E0394BA
:1027B000000C11F4882352F0BB0F40F4BF2B11F42E
:1027C00060FF04C06F5F7F4F8F4F9F4F089557FD8D
:1027D0009058440F551F59F05F3F71F04795880F8F
:1027E00097FB991F61F09F3F79F087950895121626
:1027F00013061406551FF2CF4695F1DF08C01616D2
:1028000017061806991FF1CF869571056105089482
:102810000895E894BB2766277727CB0197F9089599
:10282000F999FECF92BD81BDF89A992780B5089598
:10283000262FF999FECF1FBA92BD81BD20BD0FB6DC
:10284000F894FA9AF99A0FBE019608955058BB274A
:10285000AA270E943E140C94D6130E94C81338F085
:102860000E94CF1320F039F49F3F19F426F40C9402
:10287000C5130EF4E095E7FB0C94BF13E92F0E94FB
:10288000E71358F3BA17620773078407950720F018
:1028900079F4A6F50C9409140EF4E0950B2EBA2FDA
:1028A000A02D0B01B90190010C01CA01A001112456
:1028B000FF27591B99F0593F50F4503E68F11A1602
:1028C000F040A22F232F342F4427585FF3CF469593
:1028D00037952795A795F0405395C9F77EF41F16B5
:1028E000BA0B620B730B840BBAF09150A1F0FF0F7F
:1028F000BB1F661F771F881FC2F70EC0BA0F621F6B
:10290000731F841F48F4879577956795B795F7955A
:102910009E3F08F0B0CF9395880F08F09927EE0FEF
:102920009795879508950E94A7140C94D6130E943A
:10293000CF1358F00E94C81340F029F45F3F29F0EC
:102940000C94BF1351110C940A140C94C5130E94DB
:10295000E71368F39923B1F3552391F3951B550BB6
:10296000BB27AA2762177307840738F09F5F5F4F62
:10297000220F331F441FAA1FA9F335D00E2E3AF0A1
:10298000E0E832D091505040E695001CCAF72BD0B9
:10299000FE2F29D0660F771F881FBB1F261737070A
:1029A0004807AB07B0E809F0BB0B802DBF01FF273C
:1029B00093585F4F3AF09E3F510578F00C94BF1347
:1029C0000C940A145F3FE4F3983ED4F38695779510
:1029D0006795B795F7959F5FC9F7880F911D9695F5
:1029E000879597F90895E1E0660F771F881FBB1F51
:1029F000621773078407BA0720F0621B730B840BFE
:102A0000BA0BEE1F88F7E09508950E94EF1388F047
:102A10009F5798F0B92F9927B751B0F0E1F0660FA2
:102A2000771F881F991F1AF0BA95C9F714C0B130E3
:102A300091F00E940914B1E008950C940914672FD5
:102A4000782F8827B85F39F0B93FCCF38695779512
:102A50006795B395D9F73EF49095809570956195FB
:102A60007F4F8F4F9F4F08950E942E1308F48FEFD2
:102A70000895052E97FB1EF400940E94501557FDF3
:102A800007D00E945E1507FC03D04EF40C9450153D
:102A900050954095309521953F4F4F4F5F4F08958A
:102AA00090958095709561957F4F8F4F9F4F0895BA
:102AB000EE0FFF1F0590F491E02D0994A1E21A2E6C
:102AC000AA1BBB1BFD010DC0AA1FBB1FEE1FFF1FD2
:102AD000A217B307E407F50720F0A21BB30BE40B22
:102AE000F50B661F771F881F991F1A9469F7609569
:102AF0007095809590959B01AC01BD01CF01089523
:102B0000FB01DC0102C001900D9241505040D8F70A
:102B100008956817790768F4FB01DC01E40FF51FDD
:102B2000A40FB51F02C002900E9241505040D8F73A
:0A2B300008950C948015F894FFCF6F
:102B3A00000000006410B71DC8206E3BAC30D926D7
:102B4A009041DC76F4516B6B5861B24D3C71055083
:102B5A002083B8ED44930FF0E8A3D6D68CB361CBAB
:102B6A00B0C2649BD4D2D38678E20AA01CF2BDBD5F
:102B7A0000000000B6010D01430103027401520175
:022B8A006601E2
:00000001FF
